:04000000803119280A
:100008007E14803120007F08F0000B1D1528643015
:1000180095000B112808031915280130A607003090
:10002800A73D7008FF007E10090080311B2846306C
:100038008400823085002B3086000030870008302D
:1000480082314E22FA01A001A101A201A301A4015B
:10005800A501A601A701A801A901AA017E102000F7
:100068008131902920002908013EB300003003188F
:100078000130B4003208330634040319452800302F
:100088000800A901FA017A0832060319EB287A3523
:10009800203E86008701403FB300413FB4007A0804
:1000A8002B3E860087010108B500B6013508F1002E
:1000B8003608F2002F08F4002E08F3008131FD21E4
:1000C8008031200034087202031D6C283308710245
:1000D8000318A0287A35203E860087012F08B4002F
:1000E8002E08B300B436B30CB309B409B30A031924
:1000F800B40A403F3307B500413F343DB6007A08A3
:100108002B3E860087010108B700B8013708F100C7
:100118003808F2002F08F4002E08F3008131FD2181
:100128008031200036087202031D9C2835087102B0
:100138000318E428003008007A35203E860087013D
:10014800403FB300413FB4007A082B3E8600870148
:100158000108B500B60134083606031DB528330872
:1001680035060319E4287A082B3E86008701010822
:10017800B300B4013308F1003408F2002F08F4008A
:100188002E08F3008131FD2180317A35203E86002A
:10019800870120002F08B6002E08B500B636B50C2A
:1001A800403F3507B700413F363DB8007208380276
:1001B800031DE028710837020318E42800300800FE
:1001C8000130B3003308A9070130FA02472829088B
:1001D8003206031DF12801300800003008009C3069
:1001E800F700D730890BF628F70BF6280000200017
:1001F8003208F7007708FA007A0803190E297A35C9
:10020800FE3E203E860087010030C03FC13F0130DE
:10021800FA0200292000A901A801A80AA601A7013D
:100228003D290C30823132228031F70077082000D6
:10023800AA0031082A02031C3D292708F8002608CD
:10024800F700F735F80D2935203E86008701770835
:10025800C03F7808C13F0130F7007708A907A60119
:10026800A7019C30F700D730890B3829F70B3829BC
:100278000000D0302000260607300319270603198E
:1002880051292908013EF700003003180130F80011
:10029800320877067804031D1529A801A601A701CD
:1002A800803136208031003A03190800033081314B
:1002B800B9218031C830F7007708F100C8308231A1
:1002C80018220800FA017A082000320603190800EB
:1002D800C830F6007608F100C83082311822813122
:1002E8007A082B3E860087010108F6007608F70099
:1002F800770803198B29D030F600CA30890B822978
:10030800F60B82290130F7027708031D7F29013097
:10031800F6007608FA0767298131E22181316430D5
:1003280020009500E43000320032890B9729003212
:10033800003201308131B92181318B178131662139
:1003480081310C30823132228131F9007908200064
:10035800AA0031082A02031CB4298031F320813114
:100368003530890BB5290000A529F30022000C15AA
:100378008C167308F1007108FA007A080319D2295B
:100388000630F2001330F100AE30890BC929F10BA9
:10039800C929F20BC9290130FA02C12922008C129D
:1003A8000C110930F2001E30F100E430890BDA2913
:1003B800F10BDA29F20BDA29003208006830210043
:1003C80099001130950020008C0122008C0110301A
:1003D80023008C0021009D0160309E001A308C00A3
:1003E800023024008C000A302100970020308B0056
:1003F8000800F501F601711C052A7308F507740851
:10040800F63D0130F335F40D890B062A0130F2363A
:10041800F10C890B0B2A71087204031DFF29760859
:10042800F2007508F1000800F3007108F200720884
:10043800F400740803190800013022008C067308C0
:10044800F2007208F500750803192F2A0130F50229
:100458007508031D2A2A0130F4021D2AF100210023
:100468001D141D0883399D001D0871049D00053069
:10047800890B3C2A000021009D149D18412A1D105B
:100488001C080800023402340034143400340134E7
:1004980085340334FE0012001E00FE0B4F2A003480
:020000040001F9
:04000E008CC9FFDFBB
:00000001FF
